{
  "_format": "hh-sol-artifact-1",
  "contractName": "MonsterCard",
  "sourceName": "contracts/MonsterCard.sol",
  "abi": [
    {
      "inputs": [
        {
          "internalType": "address",
          "name": "initialOwner",
          "type": "address"
        },
        {
          "internalType": "string",
          "name": "_name",
          "type": "string"
        },
        {
          "internalType": "uint256",
          "name": "_price",
          "type": "uint256"
        },
        {
          "internalType": "string",
          "name": "_symbol",
          "type": "string"
        },
        {
          "internalType": "string",
          "name": "_uri",
          "type": "string"
        }
      ],
      "stateMutability": "nonpayable",
      "type": "constructor"
    },
    {
      "inputs": [],
      "name": "ERC721EnumerableForbiddenBatchMint",
      "type": "error"
    },
    {
      "inputs": [
        {
          "internalType": "address",
          "name": "sender",
          "type": "address"
        },
        {
          "internalType": "uint256",
          "name": "tokenId",
          "type": "uint256"
        },
        {
          "internalType": "address",
          "name": "owner",
          "type": "address"
        }
      ],
      "name": "ERC721IncorrectOwner",
      "type": "error"
    },
    {
      "inputs": [
        {
          "internalType": "address",
          "name": "operator",
          "type": "address"
        },
        {
          "internalType": "uint256",
          "name": "tokenId",
          "type": "uint256"
        }
      ],
      "name": "ERC721InsufficientApproval",
      "type": "error"
    },
    {
      "inputs": [
        {
          "internalType": "address",
          "name": "approver",
          "type": "address"
        }
      ],
      "name": "ERC721InvalidApprover",
      "type": "error"
    },
    {
      "inputs": [
        {
          "internalType": "address",
          "name": "operator",
          "type": "address"
        }
      ],
      "name": "ERC721InvalidOperator",
      "type": "error"
    },
    {
      "inputs": [
        {
          "internalType": "address",
          "name": "owner",
          "type": "address"
        }
      ],
      "name": "ERC721InvalidOwner",
      "type": "error"
    },
    {
      "inputs": [
        {
          "internalType": "address",
          "name": "receiver",
          "type": "address"
        }
      ],
      "name": "ERC721InvalidReceiver",
      "type": "error"
    },
    {
      "inputs": [
        {
          "internalType": "address",
          "name": "sender",
          "type": "address"
        }
      ],
      "name": "ERC721InvalidSender",
      "type": "error"
    },
    {
      "inputs": [
        {
          "internalType": "uint256",
          "name": "tokenId",
          "type": "uint256"
        }
      ],
      "name": "ERC721NonexistentToken",
      "type": "error"
    },
    {
      "inputs": [
        {
          "internalType": "address",
          "name": "owner",
          "type": "address"
        },
        {
          "internalType": "uint256",
          "name": "index",
          "type": "uint256"
        }
      ],
      "name": "ERC721OutOfBoundsIndex",
      "type": "error"
    },
    {
      "inputs": [
        {
          "internalType": "address",
          "name": "owner",
          "type": "address"
        }
      ],
      "name": "OwnableInvalidOwner",
      "type": "error"
    },
    {
      "inputs": [
        {
          "internalType": "address",
          "name": "account",
          "type": "address"
        }
      ],
      "name": "OwnableUnauthorizedAccount",
      "type": "error"
    },
    {
      "inputs": [],
      "name": "ReentrancyGuardReentrantCall",
      "type": "error"
    },
    {
      "anonymous": false,
      "inputs": [
        {
          "indexed": true,
          "internalType": "address",
          "name": "owner",
          "type": "address"
        },
        {
          "indexed": true,
          "internalType": "address",
          "name": "approved",
          "type": "address"
        },
        {
          "indexed": true,
          "internalType": "uint256",
          "name": "tokenId",
          "type": "uint256"
        }
      ],
      "name": "Approval",
      "type": "event"
    },
    {
      "anonymous": false,
      "inputs": [
        {
          "indexed": true,
          "internalType": "address",
          "name": "owner",
          "type": "address"
        },
        {
          "indexed": true,
          "internalType": "address",
          "name": "operator",
          "type": "address"
        },
        {
          "indexed": false,
          "internalType": "bool",
          "name": "approved",
          "type": "bool"
        }
      ],
      "name": "ApprovalForAll",
      "type": "event"
    },
    {
      "anonymous": false,
      "inputs": [
        {
          "indexed": false,
          "internalType": "uint256",
          "name": "_fromTokenId",
          "type": "uint256"
        },
        {
          "indexed": false,
          "internalType": "uint256",
          "name": "_toTokenId",
          "type": "uint256"
        }
      ],
      "name": "BatchMetadataUpdate",
      "type": "event"
    },
    {
      "anonymous": false,
      "inputs": [
        {
          "indexed": false,
          "internalType": "uint256",
          "name": "_tokenId",
          "type": "uint256"
        }
      ],
      "name": "MetadataUpdate",
      "type": "event"
    },
    {
      "anonymous": false,
      "inputs": [
        {
          "indexed": true,
          "internalType": "address",
          "name": "previousOwner",
          "type": "address"
        },
        {
          "indexed": true,
          "internalType": "address",
          "name": "newOwner",
          "type": "address"
        }
      ],
      "name": "OwnershipTransferred",
      "type": "event"
    },
    {
      "anonymous": false,
      "inputs": [
        {
          "indexed": true,
          "internalType": "address",
          "name": "from",
          "type": "address"
        },
        {
          "indexed": false,
          "internalType": "uint256",
          "name": "amount",
          "type": "uint256"
        }
      ],
      "name": "Received",
      "type": "event"
    },
    {
      "anonymous": false,
      "inputs": [
        {
          "indexed": true,
          "internalType": "address",
          "name": "from",
          "type": "address"
        },
        {
          "indexed": true,
          "internalType": "address",
          "name": "to",
          "type": "address"
        },
        {
          "indexed": true,
          "internalType": "uint256",
          "name": "tokenId",
          "type": "uint256"
        }
      ],
      "name": "Transfer",
      "type": "event"
    },
    {
      "stateMutability": "payable",
      "type": "fallback"
    },
    {
      "inputs": [
        {
          "internalType": "address",
          "name": "to",
          "type": "address"
        },
        {
          "internalType": "uint256",
          "name": "tokenId",
          "type": "uint256"
        }
      ],
      "name": "approve",
      "outputs": [],
      "stateMutability": "nonpayable",
      "type": "function"
    },
    {
      "inputs": [
        {
          "internalType": "address",
          "name": "owner",
          "type": "address"
        }
      ],
      "name": "balanceOf",
      "outputs": [
        {
          "internalType": "uint256",
          "name": "",
          "type": "uint256"
        }
      ],
      "stateMutability": "view",
      "type": "function"
    },
    {
      "inputs": [],
      "name": "baseURI",
      "outputs": [
        {
          "internalType": "string",
          "name": "",
          "type": "string"
        }
      ],
      "stateMutability": "view",
      "type": "function"
    },
    {
      "inputs": [
        {
          "internalType": "address",
          "name": "",
          "type": "address"
        }
      ],
      "name": "buyers",
      "outputs": [
        {
          "internalType": "bool",
          "name": "status",
          "type": "bool"
        },
        {
          "internalType": "uint256",
          "name": "tokenId",
          "type": "uint256"
        }
      ],
      "stateMutability": "view",
      "type": "function"
    },
    {
      "inputs": [
        {
          "internalType": "address",
          "name": "playerAddress",
          "type": "address"
        },
        {
          "internalType": "bool",
          "name": "isWinner",
          "type": "bool"
        }
      ],
      "name": "freeMint",
      "outputs": [],
      "stateMutability": "nonpayable",
      "type": "function"
    },
    {
      "inputs": [
        {
          "internalType": "uint256",
          "name": "tokenId",
          "type": "uint256"
        }
      ],
      "name": "getApproved",
      "outputs": [
        {
          "internalType": "address",
          "name": "",
          "type": "address"
        }
      ],
      "stateMutability": "view",
      "type": "function"
    },
    {
      "inputs": [
        {
          "internalType": "address",
          "name": "owner",
          "type": "address"
        },
        {
          "internalType": "address",
          "name": "operator",
          "type": "address"
        }
      ],
      "name": "isApprovedForAll",
      "outputs": [
        {
          "internalType": "bool",
          "name": "",
          "type": "bool"
        }
      ],
      "stateMutability": "view",
      "type": "function"
    },
    {
      "inputs": [],
      "name": "monsterTokenIds",
      "outputs": [
        {
          "internalType": "uint256",
          "name": "",
          "type": "uint256"
        }
      ],
      "stateMutability": "view",
      "type": "function"
    },
    {
      "inputs": [],
      "name": "name",
      "outputs": [
        {
          "internalType": "string",
          "name": "",
          "type": "string"
        }
      ],
      "stateMutability": "view",
      "type": "function"
    },
    {
      "inputs": [],
      "name": "owner",
      "outputs": [
        {
          "internalType": "address",
          "name": "",
          "type": "address"
        }
      ],
      "stateMutability": "view",
      "type": "function"
    },
    {
      "inputs": [
        {
          "internalType": "uint256",
          "name": "tokenId",
          "type": "uint256"
        }
      ],
      "name": "ownerOf",
      "outputs": [
        {
          "internalType": "address",
          "name": "",
          "type": "address"
        }
      ],
      "stateMutability": "view",
      "type": "function"
    },
    {
      "inputs": [],
      "name": "price",
      "outputs": [
        {
          "internalType": "uint256",
          "name": "",
          "type": "uint256"
        }
      ],
      "stateMutability": "view",
      "type": "function"
    },
    {
      "inputs": [],
      "name": "purchaseCard",
      "outputs": [],
      "stateMutability": "payable",
      "type": "function"
    },
    {
      "inputs": [],
      "name": "renounceOwnership",
      "outputs": [],
      "stateMutability": "nonpayable",
      "type": "function"
    },
    {
      "inputs": [
        {
          "internalType": "address",
          "name": "from",
          "type": "address"
        },
        {
          "internalType": "address",
          "name": "to",
          "type": "address"
        },
        {
          "internalType": "uint256",
          "name": "tokenId",
          "type": "uint256"
        }
      ],
      "name": "safeTransferFrom",
      "outputs": [],
      "stateMutability": "nonpayable",
      "type": "function"
    },
    {
      "inputs": [
        {
          "internalType": "address",
          "name": "from",
          "type": "address"
        },
        {
          "internalType": "address",
          "name": "to",
          "type": "address"
        },
        {
          "internalType": "uint256",
          "name": "tokenId",
          "type": "uint256"
        },
        {
          "internalType": "bytes",
          "name": "data",
          "type": "bytes"
        }
      ],
      "name": "safeTransferFrom",
      "outputs": [],
      "stateMutability": "nonpayable",
      "type": "function"
    },
    {
      "inputs": [
        {
          "internalType": "address",
          "name": "winnerAddress",
          "type": "address"
        },
        {
          "internalType": "address",
          "name": "loserAddress",
          "type": "address"
        },
        {
          "internalType": "uint256",
          "name": "monsterId",
          "type": "uint256"
        }
      ],
      "name": "sendCardToWinner",
      "outputs": [],
      "stateMutability": "nonpayable",
      "type": "function"
    },
    {
      "inputs": [
        {
          "internalType": "address",
          "name": "operator",
          "type": "address"
        },
        {
          "internalType": "bool",
          "name": "approved",
          "type": "bool"
        }
      ],
      "name": "setApprovalForAll",
      "outputs": [],
      "stateMutability": "nonpayable",
      "type": "function"
    },
    {
      "inputs": [
        {
          "internalType": "bytes4",
          "name": "interfaceId",
          "type": "bytes4"
        }
      ],
      "name": "supportsInterface",
      "outputs": [
        {
          "internalType": "bool",
          "name": "",
          "type": "bool"
        }
      ],
      "stateMutability": "view",
      "type": "function"
    },
    {
      "inputs": [],
      "name": "symbol",
      "outputs": [
        {
          "internalType": "string",
          "name": "",
          "type": "string"
        }
      ],
      "stateMutability": "view",
      "type": "function"
    },
    {
      "inputs": [
        {
          "internalType": "uint256",
          "name": "index",
          "type": "uint256"
        }
      ],
      "name": "tokenByIndex",
      "outputs": [
        {
          "internalType": "uint256",
          "name": "",
          "type": "uint256"
        }
      ],
      "stateMutability": "view",
      "type": "function"
    },
    {
      "inputs": [
        {
          "internalType": "address",
          "name": "owner",
          "type": "address"
        },
        {
          "internalType": "uint256",
          "name": "index",
          "type": "uint256"
        }
      ],
      "name": "tokenOfOwnerByIndex",
      "outputs": [
        {
          "internalType": "uint256",
          "name": "",
          "type": "uint256"
        }
      ],
      "stateMutability": "view",
      "type": "function"
    },
    {
      "inputs": [
        {
          "internalType": "uint256",
          "name": "_tokenId",
          "type": "uint256"
        }
      ],
      "name": "tokenURI",
      "outputs": [
        {
          "internalType": "string",
          "name": "",
          "type": "string"
        }
      ],
      "stateMutability": "view",
      "type": "function"
    },
    {
      "inputs": [],
      "name": "totalSupply",
      "outputs": [
        {
          "internalType": "uint256",
          "name": "",
          "type": "uint256"
        }
      ],
      "stateMutability": "view",
      "type": "function"
    },
    {
      "inputs": [
        {
          "internalType": "address",
          "name": "from",
          "type": "address"
        },
        {
          "internalType": "address",
          "name": "to",
          "type": "address"
        },
        {
          "internalType": "uint256",
          "name": "tokenId",
          "type": "uint256"
        }
      ],
      "name": "transferFrom",
      "outputs": [],
      "stateMutability": "nonpayable",
      "type": "function"
    },
    {
      "inputs": [
        {
          "internalType": "address",
          "name": "newOwner",
          "type": "address"
        }
      ],
      "name": "transferOwnership",
      "outputs": [],
      "stateMutability": "nonpayable",
      "type": "function"
    },
    {
      "inputs": [],
      "name": "withdrawEther",
      "outputs": [],
      "stateMutability": "nonpayable",
      "type": "function"
    },
    {
      "stateMutability": "payable",
      "type": "receive"
    }
  ],
  "bytecode": "0x60806040526001600f5534801561001557600080fd5b506040516144fa3803806144fa83398181016040528101906100379190610489565b8484838160009081610049919061076f565b508060019081610059919061076f565b505050600073ffffffffffffffffffffffffffffffffffffffff168173ffffffffffffffffffffffffffffffffffffffff16036100ce5760006040517f1e4fbdf70000000000000000000000000000000000000000000000000000000081526004016100c59190610850565b60405180910390fd5b6100dd816101ba60201b60201c565b506001600c81905550600073ffffffffffffffffffffffffffffffffffffffff168573ffffffffffffffffffffffffffffffffffffffff1603610155576040517f08c379a000000000000000000000000000000000000000000000000000000000815260040161014c906108c8565b60405180910390fd5b6000815111610199576040517f08c379a000000000000000000000000000000000000000000000000000000000815260040161019090610934565b60405180910390fd5b82600d8190555080600e90816101af919061076f565b505050505050610954565b6000600b60009054906101000a900473ffffffffffffffffffffffffffffffffffffffff16905081600b60006101000a81548173ffffffffffffffffffffffffffffffffffffffff021916908373ffffffffffffffffffffffffffffffffffffffff1602179055508173ffffffffffffffffffffffffffffffffffffffff168173ffffffffffffffffffffffffffffffffffffffff167f8be0079c531659141344cd1fd0a4f28419497f9722a3daafe3b4186f6b6457e060405160405180910390a35050565b6000604051905090565b600080fd5b600080fd5b600073ffffffffffffffffffffffffffffffffffffffff82169050919050565b60006102bf82610294565b9050919050565b6102cf816102b4565b81146102da57600080fd5b50565b6000815190506102ec816102c6565b92915050565b600080fd5b600080fd5b6000601f19601f8301169050919050565b7f4e487b7100000000000000000000000000000000000000000000000000000000600052604160045260246000fd5b610345826102fc565b810181811067ffffffffffffffff821117156103645761036361030d565b5b80604052505050565b6000610377610280565b9050610383828261033c565b919050565b600067ffffffffffffffff8211156103a3576103a261030d565b5b6103ac826102fc565b9050602081019050919050565b60005b838110156103d75780820151818401526020810190506103bc565b60008484015250505050565b60006103f66103f184610388565b61036d565b905082815260208101848484011115610412576104116102f7565b5b61041d8482856103b9565b509392505050565b600082601f83011261043a576104396102f2565b5b815161044a8482602086016103e3565b91505092915050565b6000819050919050565b61046681610453565b811461047157600080fd5b50565b6000815190506104838161045d565b92915050565b600080600080600060a086880312156104a5576104a461028a565b5b60006104b3888289016102dd565b955050602086015167ffffffffffffffff8111156104d4576104d361028f565b5b6104e088828901610425565b94505060406104f188828901610474565b935050606086015167ffffffffffffffff8111156105125761051161028f565b5b61051e88828901610425565b925050608086015167ffffffffffffffff81111561053f5761053e61028f565b5b61054b88828901610425565b9150509295509295909350565b600081519050919050565b7f4e487b7100000000000000000000000000000000000000000000000000000000600052602260045260246000fd5b600060028204905060018216806105aa57607f821691505b6020821081036105bd576105bc610563565b5b50919050565b60008190508160005260206000209050919050565b60006020601f8301049050919050565b600082821b905092915050565b6000600883026106257fffffffffffffffffffffffffffffffffffffffffffffffffffffffffffffffff826105e8565b61062f86836105e8565b95508019841693508086168417925050509392505050565b6000819050919050565b600061066c61066761066284610453565b610647565b610453565b9050919050565b6000819050919050565b61068683610651565b61069a61069282610673565b8484546105f5565b825550505050565b600090565b6106af6106a2565b6106ba81848461067d565b505050565b5b818110156106de576106d36000826106a7565b6001810190506106c0565b5050565b601f821115610723576106f4816105c3565b6106fd846105d8565b8101602085101561070c578190505b610720610718856105d8565b8301826106bf565b50505b505050565b600082821c905092915050565b600061074660001984600802610728565b1980831691505092915050565b600061075f8383610735565b9150826002028217905092915050565b61077882610558565b67ffffffffffffffff8111156107915761079061030d565b5b61079b8254610592565b6107a68282856106e2565b600060209050601f8311600181146107d957600084156107c7578287015190505b6107d18582610753565b865550610839565b601f1984166107e7866105c3565b60005b8281101561080f578489015182556001820191506020850194506020810190506107ea565b8683101561082c5784890151610828601f891682610735565b8355505b6001600288020188555050505b505050505050565b61084a816102b4565b82525050565b60006020820190506108656000830184610841565b92915050565b600082825260208201905092915050565b7f496e76616c696420696e697469616c206f776e65722061646472657373000000600082015250565b60006108b2601d8361086b565b91506108bd8261087c565b602082019050919050565b600060208201905081810360008301526108e1816108a5565b9050919050565b7f42617365205552492063616e6e6f7420626520656d7074790000000000000000600082015250565b600061091e60188361086b565b9150610929826108e8565b602082019050919050565b6000602082019050818103600083015261094d81610911565b9050919050565b613b97806109636000396000f3fe6080604052600436106101a05760003560e01c8063715018a6116100ec578063a22cb4651161008a578063c87b56dd11610064578063c87b56dd1461064c578063e985e9c514610689578063f2fde38b146106c6578063f82c2ba9146106ef576101f5565b8063a22cb465146105f0578063b88d4fde14610619578063b9c9453114610642576101f5565b80638da5cb5b116100c65780638da5cb5b1461053157806395d89b411461055c57806397a993aa14610587578063a035b1fe146105c5576101f5565b8063715018a6146104da5780637362377b146104f157806387b89a1d14610508576101f5565b80632509c91c116101595780634f6ccce7116101335780634f6ccce7146103f85780636352211e146104355780636c0360eb1461047257806370a082311461049d576101f5565b80632509c91c146103675780632f745c591461039257806342842e0e146103cf576101f5565b806301ffc9a71461024557806306fdde0314610282578063081812fc146102ad578063095ea7b3146102ea57806318160ddd1461031357806323b872dd1461033e576101f5565b366101f5573373ffffffffffffffffffffffffffffffffffffffff167f88a5966d370b9919b20f3e2c13ff65706f196a4e32cc2c12bf57088f88525874346040516101eb9190612be6565b60405180910390a2005b3373ffffffffffffffffffffffffffffffffffffffff167f88a5966d370b9919b20f3e2c13ff65706f196a4e32cc2c12bf57088f885258743460405161023b9190612be6565b60405180910390a2005b34801561025157600080fd5b5061026c60048036038101906102679190612c6d565b610718565b6040516102799190612cb5565b60405180910390f35b34801561028e57600080fd5b5061029761072a565b6040516102a49190612d60565b60405180910390f35b3480156102b957600080fd5b506102d460048036038101906102cf9190612dae565b6107bc565b6040516102e19190612e1c565b60405180910390f35b3480156102f657600080fd5b50610311600480360381019061030c9190612e63565b6107d8565b005b34801561031f57600080fd5b506103286107ee565b6040516103359190612be6565b60405180910390f35b34801561034a57600080fd5b5061036560048036038101906103609190612ea3565b6107fb565b005b34801561037357600080fd5b5061037c6108fd565b6040516103899190612be6565b60405180910390f35b34801561039e57600080fd5b506103b960048036038101906103b49190612e63565b610903565b6040516103c69190612be6565b60405180910390f35b3480156103db57600080fd5b506103f660048036038101906103f19190612ea3565b6109ac565b005b34801561040457600080fd5b5061041f600480360381019061041a9190612dae565b6109cc565b60405161042c9190612be6565b60405180910390f35b34801561044157600080fd5b5061045c60048036038101906104579190612dae565b610a42565b6040516104699190612e1c565b60405180910390f35b34801561047e57600080fd5b50610487610a54565b6040516104949190612d60565b60405180910390f35b3480156104a957600080fd5b506104c460048036038101906104bf9190612ef6565b610ae2565b6040516104d19190612be6565b60405180910390f35b3480156104e657600080fd5b506104ef610b9c565b005b3480156104fd57600080fd5b50610506610bb0565b005b34801561051457600080fd5b5061052f600480360381019061052a9190612f4f565b610cc7565b005b34801561053d57600080fd5b50610546610e4b565b6040516105539190612e1c565b60405180910390f35b34801561056857600080fd5b50610571610e75565b60405161057e9190612d60565b60405180910390f35b34801561059357600080fd5b506105ae60048036038101906105a99190612ef6565b610f07565b6040516105bc929190612f8f565b60405180910390f35b3480156105d157600080fd5b506105da610f38565b6040516105e79190612be6565b60405180910390f35b3480156105fc57600080fd5b5061061760048036038101906106129190612f4f565b610f3e565b005b34801561062557600080fd5b50610640600480360381019061063b91906130ed565b610f54565b005b61064a610f79565b005b34801561065857600080fd5b50610673600480360381019061066e9190612dae565b611215565b6040516106809190612d60565b60405180910390f35b34801561069557600080fd5b506106b060048036038101906106ab9190613170565b611227565b6040516106bd9190612cb5565b60405180910390f35b3480156106d257600080fd5b506106ed60048036038101906106e89190612ef6565b6112bb565b005b3480156106fb57600080fd5b5061071660048036038101906107119190612ea3565b611341565b005b6000610723826114e0565b9050919050565b606060008054610739906131df565b80601f0160208091040260200160405190810160405280929190818152602001828054610765906131df565b80156107b25780601f10610787576101008083540402835291602001916107b2565b820191906000526020600020905b81548152906001019060200180831161079557829003601f168201915b5050505050905090565b60006107c782611541565b506107d1826115c9565b9050919050565b6107ea82826107e5611606565b61160e565b5050565b6000600880549050905090565b600073ffffffffffffffffffffffffffffffffffffffff168273ffffffffffffffffffffffffffffffffffffffff160361086d5760006040517f64a0ae920000000000000000000000000000000000000000000000000000000081526004016108649190612e1c565b60405180910390fd5b6000610881838361087c611606565b611620565b90508373ffffffffffffffffffffffffffffffffffffffff168173ffffffffffffffffffffffffffffffffffffffff16146108f7578382826040517f64283d7b0000000000000000000000000000000000000000000000000000000081526004016108ee93929190613210565b60405180910390fd5b50505050565b600f5481565b600061090e83610ae2565b82106109535782826040517fa57d13dc00000000000000000000000000000000000000000000000000000000815260040161094a929190613247565b60405180910390fd5b600660008473ffffffffffffffffffffffffffffffffffffffff1673ffffffffffffffffffffffffffffffffffffffff168152602001908152602001600020600083815260200190815260200160002054905092915050565b6109c783838360405180602001604052806000815250610f54565b505050565b60006109d66107ee565b8210610a1c576000826040517fa57d13dc000000000000000000000000000000000000000000000000000000008152600401610a13929190613247565b60405180910390fd5b60088281548110610a3057610a2f613270565b5b90600052602060002001549050919050565b6000610a4d82611541565b9050919050565b600e8054610a61906131df565b80601f0160208091040260200160405190810160405280929190818152602001828054610a8d906131df565b8015610ada5780601f10610aaf57610100808354040283529160200191610ada565b820191906000526020600020905b815481529060010190602001808311610abd57829003601f168201915b505050505081565b60008073ffffffffffffffffffffffffffffffffffffffff168273ffffffffffffffffffffffffffffffffffffffff1603610b555760006040517f89c62b64000000000000000000000000000000000000000000000000000000008152600401610b4c9190612e1c565b60405180910390fd5b600360008373ffffffffffffffffffffffffffffffffffffffff1673ffffffffffffffffffffffffffffffffffffffff168152602001908152602001600020549050919050565b610ba4611636565b610bae60006116bd565b565b610bb8611636565b610bc0611783565b600047905060008111610c08576040517f08c379a0000000000000000000000000000000000000000000000000000000008152600401610bff90613311565b60405180910390fd5b6000610c12610e4b565b73ffffffffffffffffffffffffffffffffffffffff1682604051610c3590613362565b60006040518083038185875af1925050503d8060008114610c72576040519150601f19603f3d011682016040523d82523d6000602084013e610c77565b606091505b5050905080610cbb576040517f08c379a0000000000000000000000000000000000000000000000000000000008152600401610cb2906133c3565b60405180910390fd5b5050610cc56117c9565b565b80610d07576040517f08c379a0000000000000000000000000000000000000000000000000000000008152600401610cfe9061347b565b60405180910390fd5b610d1382600f546117d3565b610da9600f54600e8054610d26906131df565b80601f0160208091040260200160405190810160405280929190818152602001828054610d52906131df565b8015610d9f5780601f10610d7457610100808354040283529160200191610d9f565b820191906000526020600020905b815481529060010190602001808311610d8257829003601f168201915b50505050506117f1565b6040518060400160405280600115158152602001600f54815250601060008473ffffffffffffffffffffffffffffffffffffffff1673ffffffffffffffffffffffffffffffffffffffff16815260200190815260200160002060008201518160000160006101000a81548160ff02191690831515021790555060208201518160010155905050600f6000815480929190610e42906134ca565b91905055505050565b6000600b60009054906101000a900473ffffffffffffffffffffffffffffffffffffffff16905090565b606060018054610e84906131df565b80601f0160208091040260200160405190810160405280929190818152602001828054610eb0906131df565b8015610efd5780601f10610ed257610100808354040283529160200191610efd565b820191906000526020600020905b815481529060010190602001808311610ee057829003601f168201915b5050505050905090565b60106020528060005260406000206000915090508060000160009054906101000a900460ff16908060010154905082565b600d5481565b610f50610f49611606565b838361184d565b5050565b610f5f8484846107fb565b610f73610f6a611606565b858585856119bc565b50505050565b610f81611783565b610f89610e4b565b73ffffffffffffffffffffffffffffffffffffffff163373ffffffffffffffffffffffffffffffffffffffff1603610ff6576040517f08c379a0000000000000000000000000000000000000000000000000000000008152600401610fed9061355e565b60405180910390fd5b600d5434101561103b576040517f08c379a0000000000000000000000000000000000000000000000000000000008152600401611032906135f0565b60405180910390fd5b601060003373ffffffffffffffffffffffffffffffffffffffff1673ffffffffffffffffffffffffffffffffffffffff16815260200190815260200160002060000160009054906101000a900460ff16156110cb576040517f08c379a00000000000000000000000000000000000000000000000000000000081526004016110c29061365c565b60405180910390fd5b6110d733600f546117d3565b61116d600f54600e80546110ea906131df565b80601f0160208091040260200160405190810160405280929190818152602001828054611116906131df565b80156111635780601f1061113857610100808354040283529160200191611163565b820191906000526020600020905b81548152906001019060200180831161114657829003601f168201915b50505050506117f1565b6040518060400160405280600115158152602001600f54815250601060003373ffffffffffffffffffffffffffffffffffffffff1673ffffffffffffffffffffffffffffffffffffffff16815260200190815260200160002060008201518160000160006101000a81548160ff02191690831515021790555060208201518160010155905050600f6000815480929190611206906134ca565b91905055506112136117c9565b565b606061122082611b6d565b9050919050565b6000600560008473ffffffffffffffffffffffffffffffffffffffff1673ffffffffffffffffffffffffffffffffffffffff16815260200190815260200160002060008373ffffffffffffffffffffffffffffffffffffffff1673ffffffffffffffffffffffffffffffffffffffff16815260200190815260200160002060009054906101000a900460ff16905092915050565b6112c3611636565b600073ffffffffffffffffffffffffffffffffffffffff168173ffffffffffffffffffffffffffffffffffffffff16036113355760006040517f1e4fbdf700000000000000000000000000000000000000000000000000000000815260040161132c9190612e1c565b60405180910390fd5b61133e816116bd565b50565b611349611783565b8173ffffffffffffffffffffffffffffffffffffffff1661136982610a42565b73ffffffffffffffffffffffffffffffffffffffff16146113bf576040517f08c379a00000000000000000000000000000000000000000000000000000000081526004016113b6906136ee565b60405180910390fd5b6113ca8284836107fb565b60405180604001604052806000151581526020016000815250601060008473ffffffffffffffffffffffffffffffffffffffff1673ffffffffffffffffffffffffffffffffffffffff16815260200190815260200160002060008201518160000160006101000a81548160ff02191690831515021790555060208201518160010155905050604051806040016040528060011515815260200182815250601060008573ffffffffffffffffffffffffffffffffffffffff1673ffffffffffffffffffffffffffffffffffffffff16815260200190815260200160002060008201518160000160006101000a81548160ff021916908315150217905550602082015181600101559050506114db6117c9565b505050565b6000634906490660e01b7bffffffffffffffffffffffffffffffffffffffffffffffffffffffff1916827bffffffffffffffffffffffffffffffffffffffffffffffffffffffff1916148061153a575061153982611c80565b5b9050919050565b60008061154d83611cfa565b9050600073ffffffffffffffffffffffffffffffffffffffff168173ffffffffffffffffffffffffffffffffffffffff16036115c057826040517f7e2732890000000000000000000000000000000000000000000000000000000081526004016115b79190612be6565b60405180910390fd5b80915050919050565b60006004600083815260200190815260200160002060009054906101000a900473ffffffffffffffffffffffffffffffffffffffff169050919050565b600033905090565b61161b8383836001611d37565b505050565b600061162d848484611efc565b90509392505050565b61163e611606565b73ffffffffffffffffffffffffffffffffffffffff1661165c610e4b565b73ffffffffffffffffffffffffffffffffffffffff16146116bb5761167f611606565b6040517f118cdaa70000000000000000000000000000000000000000000000000000000081526004016116b29190612e1c565b60405180910390fd5b565b6000600b60009054906101000a900473ffffffffffffffffffffffffffffffffffffffff16905081600b60006101000a81548173ffffffffffffffffffffffffffffffffffffffff021916908373ffffffffffffffffffffffffffffffffffffffff1602179055508173ffffffffffffffffffffffffffffffffffffffff168173ffffffffffffffffffffffffffffffffffffffff167f8be0079c531659141344cd1fd0a4f28419497f9722a3daafe3b4186f6b6457e060405160405180910390a35050565b6002600c54036117bf576040517f3ee5aeb500000000000000000000000000000000000000000000000000000000815260040160405180910390fd5b6002600c81905550565b6001600c81905550565b6117ed828260405180602001604052806000815250612019565b5050565b80600a6000848152602001908152602001600020908161181191906138ba565b507ff8e1a15aba9398e019f0b49df1a4fde98ee17ae345cb5f6b5e2c27f5033e8ce7826040516118419190612be6565b60405180910390a15050565b600073ffffffffffffffffffffffffffffffffffffffff168273ffffffffffffffffffffffffffffffffffffffff16036118be57816040517f5b08ba180000000000000000000000000000000000000000000000000000000081526004016118b59190612e1c565b60405180910390fd5b80600560008573ffffffffffffffffffffffffffffffffffffffff1673ffffffffffffffffffffffffffffffffffffffff16815260200190815260200160002060008473ffffffffffffffffffffffffffffffffffffffff1673ffffffffffffffffffffffffffffffffffffffff16815260200190815260200160002060006101000a81548160ff0219169083151502179055508173ffffffffffffffffffffffffffffffffffffffff168373ffffffffffffffffffffffffffffffffffffffff167f17307eab39ab6107e8899845ad3d59bd9653f200f220920489ca2b5937696c31836040516119af9190612cb5565b60405180910390a3505050565b60008373ffffffffffffffffffffffffffffffffffffffff163b1115611b66578273ffffffffffffffffffffffffffffffffffffffff1663150b7a02868685856040518563ffffffff1660e01b8152600401611a1b94939291906139e1565b6020604051808303816000875af1925050508015611a5757506040513d601f19601f82011682018060405250810190611a549190613a42565b60015b611adb573d8060008114611a87576040519150601f19603f3d011682016040523d82523d6000602084013e611a8c565b606091505b506000815103611ad357836040517f64a0ae92000000000000000000000000000000000000000000000000000000008152600401611aca9190612e1c565b60405180910390fd5b805181602001fd5b63150b7a0260e01b7bffffffffffffffffffffffffffffffffffffffffffffffffffffffff1916817bffffffffffffffffffffffffffffffffffffffffffffffffffffffff191614611b6457836040517f64a0ae92000000000000000000000000000000000000000000000000000000008152600401611b5b9190612e1c565b60405180910390fd5b505b5050505050565b6060611b7882611541565b506000600a60008481526020019081526020016000208054611b99906131df565b80601f0160208091040260200160405190810160405280929190818152602001828054611bc5906131df565b8015611c125780601f10611be757610100808354040283529160200191611c12565b820191906000526020600020905b815481529060010190602001808311611bf557829003601f168201915b505050505090506000611c2361203d565b90506000815103611c38578192505050611c7b565b600082511115611c6d578082604051602001611c55929190613aab565b60405160208183030381529060405292505050611c7b565b611c76846120cf565b925050505b919050565b60007f780e9d63000000000000000000000000000000000000000000000000000000007bffffffffffffffffffffffffffffffffffffffffffffffffffffffff1916827bffffffffffffffffffffffffffffffffffffffffffffffffffffffff19161480611cf35750611cf282612138565b5b9050919050565b60006002600083815260200190815260200160002060009054906101000a900473ffffffffffffffffffffffffffffffffffffffff169050919050565b8080611d705750600073ffffffffffffffffffffffffffffffffffffffff168273ffffffffffffffffffffffffffffffffffffffff1614155b15611ea4576000611d8084611541565b9050600073ffffffffffffffffffffffffffffffffffffffff168373ffffffffffffffffffffffffffffffffffffffff1614158015611deb57508273ffffffffffffffffffffffffffffffffffffffff168173ffffffffffffffffffffffffffffffffffffffff1614155b8015611dfe5750611dfc8184611227565b155b15611e4057826040517fa9fbf51f000000000000000000000000000000000000000000000000000000008152600401611e379190612e1c565b60405180910390fd5b8115611ea257838573ffffffffffffffffffffffffffffffffffffffff168273ffffffffffffffffffffffffffffffffffffffff167f8c5be1e5ebec7d5bd14f71427d1e84f3dd0314c0f7b2291e5b200ac8c7c3b92560405160405180910390a45b505b836004600085815260200190815260200160002060006101000a81548173ffffffffffffffffffffffffffffffffffffffff021916908373ffffffffffffffffffffffffffffffffffffffff16021790555050505050565b600080611f0a85858561221a565b9050600073ffffffffffffffffffffffffffffffffffffffff168173ffffffffffffffffffffffffffffffffffffffff1603611f4e57611f4984612434565b611f8d565b8473ffffffffffffffffffffffffffffffffffffffff168173ffffffffffffffffffffffffffffffffffffffff1614611f8c57611f8b818561247d565b5b5b600073ffffffffffffffffffffffffffffffffffffffff168573ffffffffffffffffffffffffffffffffffffffff1603611fcf57611fca84612568565b61200e565b8473ffffffffffffffffffffffffffffffffffffffff168173ffffffffffffffffffffffffffffffffffffffff161461200d5761200c8585612639565b5b5b809150509392505050565b61202383836126c4565b61203861202e611606565b60008585856119bc565b505050565b6060600e805461204c906131df565b80601f0160208091040260200160405190810160405280929190818152602001828054612078906131df565b80156120c55780601f1061209a576101008083540402835291602001916120c5565b820191906000526020600020905b8154815290600101906020018083116120a857829003601f168201915b5050505050905090565b60606120da82611541565b5060006120e561203d565b905060008151116121055760405180602001604052806000815250612130565b8061210f846127bd565b604051602001612120929190613aab565b6040516020818303038152906040525b915050919050565b60007f80ac58cd000000000000000000000000000000000000000000000000000000007bffffffffffffffffffffffffffffffffffffffffffffffffffffffff1916827bffffffffffffffffffffffffffffffffffffffffffffffffffffffff1916148061220357507f5b5e139f000000000000000000000000000000000000000000000000000000007bffffffffffffffffffffffffffffffffffffffffffffffffffffffff1916827bffffffffffffffffffffffffffffffffffffffffffffffffffffffff1916145b8061221357506122128261288b565b5b9050919050565b60008061222684611cfa565b9050600073ffffffffffffffffffffffffffffffffffffffff168373ffffffffffffffffffffffffffffffffffffffff1614612268576122678184866128f5565b5b600073ffffffffffffffffffffffffffffffffffffffff168173ffffffffffffffffffffffffffffffffffffffff16146122f9576122aa600085600080611d37565b6001600360008373ffffffffffffffffffffffffffffffffffffffff1673ffffffffffffffffffffffffffffffffffffffff168152602001908152602001600020600082825403925050819055505b600073ffffffffffffffffffffffffffffffffffffffff168573ffffffffffffffffffffffffffffffffffffffff161461237c576001600360008773ffffffffffffffffffffffffffffffffffffffff1673ffffffffffffffffffffffffffffffffffffffff168152602001908152602001600020600082825401925050819055505b846002600086815260200190815260200160002060006101000a81548173ffffffffffffffffffffffffffffffffffffffff021916908373ffffffffffffffffffffffffffffffffffffffff160217905550838573ffffffffffffffffffffffffffffffffffffffff168273ffffffffffffffffffffffffffffffffffffffff167fddf252ad1be2c89b69c2b068fc378daa952ba7f163c4a11628f55a4df523b3ef60405160405180910390a4809150509392505050565b6008805490506009600083815260200190815260200160002081905550600881908060018154018082558091505060019003906000526020600020016000909190919091505550565b600061248883610ae2565b90506000600760008481526020019081526020016000205490506000600660008673ffffffffffffffffffffffffffffffffffffffff1673ffffffffffffffffffffffffffffffffffffffff16815260200190815260200160002090508282146125345760008160008581526020019081526020016000205490508082600085815260200190815260200160002081905550826007600083815260200190815260200160002081905550505b6007600085815260200190815260200160002060009055806000848152602001908152602001600020600090555050505050565b6000600160088054905061257c9190613acf565b90506000600960008481526020019081526020016000205490506000600883815481106125ac576125ab613270565b5b9060005260206000200154905080600883815481106125ce576125cd613270565b5b90600052602060002001819055508160096000838152602001908152602001600020819055506009600085815260200190815260200160002060009055600880548061261d5761261c613b03565b5b6001900381819060005260206000200160009055905550505050565b6000600161264684610ae2565b6126509190613acf565b905081600660008573ffffffffffffffffffffffffffffffffffffffff1673ffffffffffffffffffffffffffffffffffffffff168152602001908152602001600020600083815260200190815260200160002081905550806007600084815260200190815260200160002081905550505050565b600073ffffffffffffffffffffffffffffffffffffffff168273ffffffffffffffffffffffffffffffffffffffff16036127365760006040517f64a0ae9200000000000000000000000000000000000000000000000000000000815260040161272d9190612e1c565b60405180910390fd5b600061274483836000611620565b9050600073ffffffffffffffffffffffffffffffffffffffff168173ffffffffffffffffffffffffffffffffffffffff16146127b85760006040517f73c6ac6e0000000000000000000000000000000000000000000000000000000081526004016127af9190612e1c565b60405180910390fd5b505050565b6060600060016127cc846129b9565b01905060008167ffffffffffffffff8111156127eb576127ea612fc2565b5b6040519080825280601f01601f19166020018201604052801561281d5781602001600182028036833780820191505090505b509050600082602001820190505b600115612880578080600190039150507f3031323334353637383961626364656600000000000000000000000000000000600a86061a8153600a858161287457612873613b32565b5b0494506000850361282b575b819350505050919050565b60007f01ffc9a7000000000000000000000000000000000000000000000000000000007bffffffffffffffffffffffffffffffffffffffffffffffffffffffff1916827bffffffffffffffffffffffffffffffffffffffffffffffffffffffff1916149050919050565b612900838383612b0c565b6129b457600073ffffffffffffffffffffffffffffffffffffffff168373ffffffffffffffffffffffffffffffffffffffff160361297557806040517f7e27328900000000000000000000000000000000000000000000000000000000815260040161296c9190612be6565b60405180910390fd5b81816040517f177e802f0000000000000000000000000000000000000000000000000000000081526004016129ab929190613247565b60405180910390fd5b505050565b600080600090507a184f03e93ff9f4daa797ed6e38ed64bf6a1f0100000000000000008310612a17577a184f03e93ff9f4daa797ed6e38ed64bf6a1f0100000000000000008381612a0d57612a0c613b32565b5b0492506040810190505b6d04ee2d6d415b85acef81000000008310612a54576d04ee2d6d415b85acef81000000008381612a4a57612a49613b32565b5b0492506020810190505b662386f26fc100008310612a8357662386f26fc100008381612a7957612a78613b32565b5b0492506010810190505b6305f5e1008310612aac576305f5e1008381612aa257612aa1613b32565b5b0492506008810190505b6127108310612ad1576127108381612ac757612ac6613b32565b5b0492506004810190505b60648310612af45760648381612aea57612ae9613b32565b5b0492506002810190505b600a8310612b03576001810190505b80915050919050565b60008073ffffffffffffffffffffffffffffffffffffffff168373ffffffffffffffffffffffffffffffffffffffff1614158015612bc457508273ffffffffffffffffffffffffffffffffffffffff168473ffffffffffffffffffffffffffffffffffffffff161480612b855750612b848484611227565b5b80612bc357508273ffffffffffffffffffffffffffffffffffffffff16612bab836115c9565b73ffffffffffffffffffffffffffffffffffffffff16145b5b90509392505050565b6000819050919050565b612be081612bcd565b82525050565b6000602082019050612bfb6000830184612bd7565b92915050565b6000604051905090565b600080fd5b600080fd5b60007fffffffff0000000000000000000000000000000000000000000000000000000082169050919050565b612c4a81612c15565b8114612c5557600080fd5b50565b600081359050612c6781612c41565b92915050565b600060208284031215612c8357612c82612c0b565b5b6000612c9184828501612c58565b91505092915050565b60008115159050919050565b612caf81612c9a565b82525050565b6000602082019050612cca6000830184612ca6565b92915050565b600081519050919050565b600082825260208201905092915050565b60005b83811015612d0a578082015181840152602081019050612cef565b60008484015250505050565b6000601f19601f8301169050919050565b6000612d3282612cd0565b612d3c8185612cdb565b9350612d4c818560208601612cec565b612d5581612d16565b840191505092915050565b60006020820190508181036000830152612d7a8184612d27565b905092915050565b612d8b81612bcd565b8114612d9657600080fd5b50565b600081359050612da881612d82565b92915050565b600060208284031215612dc457612dc3612c0b565b5b6000612dd284828501612d99565b91505092915050565b600073ffffffffffffffffffffffffffffffffffffffff82169050919050565b6000612e0682612ddb565b9050919050565b612e1681612dfb565b82525050565b6000602082019050612e316000830184612e0d565b92915050565b612e4081612dfb565b8114612e4b57600080fd5b50565b600081359050612e5d81612e37565b92915050565b60008060408385031215612e7a57612e79612c0b565b5b6000612e8885828601612e4e565b9250506020612e9985828601612d99565b9150509250929050565b600080600060608486031215612ebc57612ebb612c0b565b5b6000612eca86828701612e4e565b9350506020612edb86828701612e4e565b9250506040612eec86828701612d99565b9150509250925092565b600060208284031215612f0c57612f0b612c0b565b5b6000612f1a84828501612e4e565b91505092915050565b612f2c81612c9a565b8114612f3757600080fd5b50565b600081359050612f4981612f23565b92915050565b60008060408385031215612f6657612f65612c0b565b5b6000612f7485828601612e4e565b9250506020612f8585828601612f3a565b9150509250929050565b6000604082019050612fa46000830185612ca6565b612fb16020830184612bd7565b9392505050565b600080fd5b600080fd5b7f4e487b7100000000000000000000000000000000000000000000000000000000600052604160045260246000fd5b612ffa82612d16565b810181811067ffffffffffffffff8211171561301957613018612fc2565b5b80604052505050565b600061302c612c01565b90506130388282612ff1565b919050565b600067ffffffffffffffff82111561305857613057612fc2565b5b61306182612d16565b9050602081019050919050565b82818337600083830152505050565b600061309061308b8461303d565b613022565b9050828152602081018484840111156130ac576130ab612fbd565b5b6130b784828561306e565b509392505050565b600082601f8301126130d4576130d3612fb8565b5b81356130e484826020860161307d565b91505092915050565b6000806000806080858703121561310757613106612c0b565b5b600061311587828801612e4e565b945050602061312687828801612e4e565b935050604061313787828801612d99565b925050606085013567ffffffffffffffff81111561315857613157612c10565b5b613164878288016130bf565b91505092959194509250565b6000806040838503121561318757613186612c0b565b5b600061319585828601612e4e565b92505060206131a685828601612e4e565b9150509250929050565b7f4e487b7100000000000000000000000000000000000000000000000000000000600052602260045260246000fd5b600060028204905060018216806131f757607f821691505b60208210810361320a576132096131b0565b5b50919050565b60006060820190506132256000830186612e0d565b6132326020830185612bd7565b61323f6040830184612e0d565b949350505050565b600060408201905061325c6000830185612e0d565b6132696020830184612bd7565b9392505050565b7f4e487b7100000000000000000000000000000000000000000000000000000000600052603260045260246000fd5b7f4e6f20457468657220617661696c61626c6520666f722077697468647261776160008201527f6c00000000000000000000000000000000000000000000000000000000000000602082015250565b60006132fb602183612cdb565b91506133068261329f565b604082019050919050565b6000602082019050818103600083015261332a816132ee565b9050919050565b600081905092915050565b50565b600061334c600083613331565b91506133578261333c565b600082019050919050565b600061336d8261333f565b9150819050919050565b7f4661696c656420746f2077697468647261772045746865720000000000000000600082015250565b60006133ad601883612cdb565b91506133b882613377565b602082019050919050565b600060208201905081810360008301526133dc816133a0565b9050919050565b7f596f75206d757374206861766520776f6e2061206d6174636820616761696e7360008201527f7420636f6d7075746572206265666f726520796f752063616e206d696e74206160208201527f2063617264000000000000000000000000000000000000000000000000000000604082015250565b6000613465604583612cdb565b9150613470826133e3565b606082019050919050565b6000602082019050818103600083015261349481613458565b9050919050565b7f4e487b7100000000000000000000000000000000000000000000000000000000600052601160045260246000fd5b60006134d582612bcd565b91507fffffffffffffffffffffffffffffffffffffffffffffffffffffffffffffffff82036135075761350661349b565b5b600182019050919050565b7f4f776e65722063616e6e6f742062757920746869732063617264000000000000600082015250565b6000613548601a83612cdb565b915061355382613512565b602082019050919050565b600060208201905081810360008301526135778161353b565b9050919050565b7f496e73756666696369656e742066756e647320746f207075726368617365206360008201527f6172640000000000000000000000000000000000000000000000000000000000602082015250565b60006135da602383612cdb565b91506135e58261357e565b604082019050919050565b60006020820190508181036000830152613609816135cd565b9050919050565b7f416c726561647920626f75676874207468697320746f6b656e00000000000000600082015250565b6000613646601983612cdb565b915061365182613610565b602082019050919050565b6000602082019050818103600083015261367581613639565b9050919050565b7f4c6f73657220646f6573206e6f74206f776e2074686973206d6f6e737465722060008201527f6361726400000000000000000000000000000000000000000000000000000000602082015250565b60006136d8602483612cdb565b91506136e38261367c565b604082019050919050565b60006020820190508181036000830152613707816136cb565b9050919050565b60008190508160005260206000209050919050565b60006020601f8301049050919050565b600082821b905092915050565b6000600883026137707fffffffffffffffffffffffffffffffffffffffffffffffffffffffffffffffff82613733565b61377a8683613733565b95508019841693508086168417925050509392505050565b6000819050919050565b60006137b76137b26137ad84612bcd565b613792565b612bcd565b9050919050565b6000819050919050565b6137d18361379c565b6137e56137dd826137be565b848454613740565b825550505050565b600090565b6137fa6137ed565b6138058184846137c8565b505050565b5b818110156138295761381e6000826137f2565b60018101905061380b565b5050565b601f82111561386e5761383f8161370e565b61384884613723565b81016020851015613857578190505b61386b61386385613723565b83018261380a565b50505b505050565b600082821c905092915050565b600061389160001984600802613873565b1980831691505092915050565b60006138aa8383613880565b9150826002028217905092915050565b6138c382612cd0565b67ffffffffffffffff8111156138dc576138db612fc2565b5b6138e682546131df565b6138f182828561382d565b600060209050601f8311600181146139245760008415613912578287015190505b61391c858261389e565b865550613984565b601f1984166139328661370e565b60005b8281101561395a57848901518255600182019150602085019450602081019050613935565b868310156139775784890151613973601f891682613880565b8355505b6001600288020188555050505b505050505050565b600081519050919050565b600082825260208201905092915050565b60006139b38261398c565b6139bd8185613997565b93506139cd818560208601612cec565b6139d681612d16565b840191505092915050565b60006080820190506139f66000830187612e0d565b613a036020830186612e0d565b613a106040830185612bd7565b8181036060830152613a2281846139a8565b905095945050505050565b600081519050613a3c81612c41565b92915050565b600060208284031215613a5857613a57612c0b565b5b6000613a6684828501613a2d565b91505092915050565b600081905092915050565b6000613a8582612cd0565b613a8f8185613a6f565b9350613a9f818560208601612cec565b80840191505092915050565b6000613ab78285613a7a565b9150613ac38284613a7a565b91508190509392505050565b6000613ada82612bcd565b9150613ae583612bcd565b9250828203905081811115613afd57613afc61349b565b5b92915050565b7f4e487b7100000000000000000000000000000000000000000000000000000000600052603160045260246000fd5b7f4e487b7100000000000000000000000000000000000000000000000000000000600052601260045260246000fdfea26469706673582212208acb260077b0d6b432aef423c4384df1ca7c55d456af17f89d53a93c3b6442bb64736f6c634300081b0033",
  "linkReferences": {},
  "deployedLinkReferences": {}
}