{
  "_format": "hh-sol-artifact-1",
  "contractName": "Gamechain",
  "contractAddress": "0x27845a625C7ab60695e82332f3C86Be0a93bBbBA",
  "sourceName": "contracts/Gamechain.sol",
  "abi": [
    {
      "inputs": [
        {
          "internalType": "address",
          "name": "_owner",
          "type": "address"
        }
      ],
      "stateMutability": "nonpayable",
      "type": "constructor"
    },
    {
      "inputs": [
        {
          "internalType": "address",
          "name": "owner",
          "type": "address"
        }
      ],
      "name": "OwnableInvalidOwner",
      "type": "error"
    },
    {
      "inputs": [
        {
          "internalType": "address",
          "name": "account",
          "type": "address"
        }
      ],
      "name": "OwnableUnauthorizedAccount",
      "type": "error"
    },
    {
      "anonymous": false,
      "inputs": [
        {
          "indexed": true,
          "internalType": "uint256",
          "name": "tokenId",
          "type": "uint256"
        },
        {
          "indexed": true,
          "internalType": "address",
          "name": "cardAddress",
          "type": "address"
        }
      ],
      "name": "MonsterCardUploaded",
      "type": "event"
    },
    {
      "anonymous": false,
      "inputs": [
        {
          "indexed": true,
          "internalType": "address",
          "name": "previousOwner",
          "type": "address"
        },
        {
          "indexed": true,
          "internalType": "address",
          "name": "newOwner",
          "type": "address"
        }
      ],
      "name": "OwnershipTransferred",
      "type": "event"
    },
    {
      "inputs": [
        {
          "internalType": "uint256",
          "name": "monsterId",
          "type": "uint256"
        }
      ],
      "name": "getMonster",
      "outputs": [
        {
          "internalType": "string",
          "name": "",
          "type": "string"
        },
        {
          "internalType": "string",
          "name": "",
          "type": "string"
        },
        {
          "internalType": "uint256",
          "name": "",
          "type": "uint256"
        }
      ],
      "stateMutability": "view",
      "type": "function"
    },
    {
      "inputs": [
        {
          "internalType": "uint256",
          "name": "",
          "type": "uint256"
        }
      ],
      "name": "monsterCards",
      "outputs": [
        {
          "internalType": "contract MonsterCard",
          "name": "",
          "type": "address"
        }
      ],
      "stateMutability": "view",
      "type": "function"
    },
    {
      "inputs": [],
      "name": "owner",
      "outputs": [
        {
          "internalType": "address",
          "name": "",
          "type": "address"
        }
      ],
      "stateMutability": "view",
      "type": "function"
    },
    {
      "inputs": [],
      "name": "renounceOwnership",
      "outputs": [],
      "stateMutability": "nonpayable",
      "type": "function"
    },
    {
      "inputs": [],
      "name": "tokenIds",
      "outputs": [
        {
          "internalType": "uint256",
          "name": "",
          "type": "uint256"
        }
      ],
      "stateMutability": "view",
      "type": "function"
    },
    {
      "inputs": [
        {
          "internalType": "address",
          "name": "newOwner",
          "type": "address"
        }
      ],
      "name": "transferOwnership",
      "outputs": [],
      "stateMutability": "nonpayable",
      "type": "function"
    },
    {
      "inputs": [
        {
          "internalType": "string",
          "name": "cardName",
          "type": "string"
        },
        {
          "internalType": "string",
          "name": "cardSymbol",
          "type": "string"
        },
        {
          "internalType": "string",
          "name": "cardURI",
          "type": "string"
        },
        {
          "internalType": "uint256",
          "name": "cardPrice",
          "type": "uint256"
        }
      ],
      "name": "uploadMonsterCard",
      "outputs": [],
      "stateMutability": "nonpayable",
      "type": "function"
    }
  ],
  "bytecode": "0x608060405234801561001057600080fd5b50604051615251380380615251833981810160405281019061003291906101e2565b80600073ffffffffffffffffffffffffffffffffffffffff168173ffffffffffffffffffffffffffffffffffffffff16036100a55760006040517f1e4fbdf700000000000000000000000000000000000000000000000000000000815260040161009c919061021e565b60405180910390fd5b6100b4816100bb60201b60201c565b5050610239565b60008060009054906101000a900473ffffffffffffffffffffffffffffffffffffffff169050816000806101000a81548173ffffffffffffffffffffffffffffffffffffffff021916908373ffffffffffffffffffffffffffffffffffffffff1602179055508173ffffffffffffffffffffffffffffffffffffffff168173ffffffffffffffffffffffffffffffffffffffff167f8be0079c531659141344cd1fd0a4f28419497f9722a3daafe3b4186f6b6457e060405160405180910390a35050565b600080fd5b600073ffffffffffffffffffffffffffffffffffffffff82169050919050565b60006101af82610184565b9050919050565b6101bf816101a4565b81146101ca57600080fd5b50565b6000815190506101dc816101b6565b92915050565b6000602082840312156101f8576101f761017f565b5b6000610206848285016101cd565b91505092915050565b610218816101a4565b82525050565b6000602082019050610233600083018461020f565b92915050565b615009806102486000396000f3fe608060405234801561001057600080fd5b506004361061007d5760003560e01c8063715018a61161005b578063715018a6146100ee5780638da5cb5b146100f8578063baed022814610116578063f2fde38b146101465761007d565b80632305f4181461008257806362fb6fe11461009e578063714cff56146100d0575b600080fd5b61009c60048036038101906100979190610892565b610162565b005b6100b860048036038101906100b3919061094d565b610263565b6040516100c793929190610a08565b60405180910390f35b6100d86104a6565b6040516100e59190610a4d565b60405180910390f35b6100f66104ac565b005b6101006104c0565b60405161010d9190610aa9565b60405180910390f35b610130600480360381019061012b919061094d565b6104e9565b60405161013d9190610b23565b60405180910390f35b610160600480360381019061015b9190610b6a565b61051c565b005b61016a6105a2565b6000338583868660405161017d906106f5565b61018b959493929190610b97565b604051809103906000f0801580156101a7573d6000803e3d6000fd5b5090508060026000600154815260200190815260200160002060006101000a81548173ffffffffffffffffffffffffffffffffffffffff021916908373ffffffffffffffffffffffffffffffffffffffff1602179055508073ffffffffffffffffffffffffffffffffffffffff166001547fbbadb81305788429607696579ec6fbfd7a0976abf636c68c5343c2d5237833e160405160405180910390a36001600081548092919061025790610c2e565b91905055505050505050565b60608060008073ffffffffffffffffffffffffffffffffffffffff166002600086815260200190815260200160002060009054906101000a900473ffffffffffffffffffffffffffffffffffffffff1673ffffffffffffffffffffffffffffffffffffffff1603610309576040517f08c379a000000000000000000000000000000000000000000000000000000000815260040161030090610cc2565b60405180910390fd5b60006002600086815260200190815260200160002060009054906101000a900473ffffffffffffffffffffffffffffffffffffffff1690508073ffffffffffffffffffffffffffffffffffffffff16636c0360eb6040518163ffffffff1660e01b8152600401600060405180830381865afa15801561038c573d6000803e3d6000fd5b505050506040513d6000823e3d601f19601f820116820180604052508101906103b59190610d52565b8173ffffffffffffffffffffffffffffffffffffffff166306fdde036040518163ffffffff1660e01b8152600401600060405180830381865afa158015610400573d6000803e3d6000fd5b505050506040513d6000823e3d601f19601f820116820180604052508101906104299190610d52565b8273ffffffffffffffffffffffffffffffffffffffff1663a035b1fe6040518163ffffffff1660e01b8152600401602060405180830381865afa158015610474573d6000803e3d6000fd5b505050506040513d601f19601f820116820180604052508101906104989190610db0565b935093509350509193909250565b60015481565b6104b46105a2565b6104be6000610629565b565b60008060009054906101000a900473ffffffffffffffffffffffffffffffffffffffff16905090565b60026020528060005260406000206000915054906101000a900473ffffffffffffffffffffffffffffffffffffffff1681565b6105246105a2565b600073ffffffffffffffffffffffffffffffffffffffff168173ffffffffffffffffffffffffffffffffffffffff16036105965760006040517f1e4fbdf700000000000000000000000000000000000000000000000000000000815260040161058d9190610aa9565b60405180910390fd5b61059f81610629565b50565b6105aa6106ed565b73ffffffffffffffffffffffffffffffffffffffff166105c86104c0565b73ffffffffffffffffffffffffffffffffffffffff1614610627576105eb6106ed565b6040517f118cdaa700000000000000000000000000000000000000000000000000000000815260040161061e9190610aa9565b60405180910390fd5b565b60008060009054906101000a900473ffffffffffffffffffffffffffffffffffffffff169050816000806101000a81548173ffffffffffffffffffffffffffffffffffffffff021916908373ffffffffffffffffffffffffffffffffffffffff1602179055508173ffffffffffffffffffffffffffffffffffffffff168173ffffffffffffffffffffffffffffffffffffffff167f8be0079c531659141344cd1fd0a4f28419497f9722a3daafe3b4186f6b6457e060405160405180910390a35050565b600033905090565b6141f680610dde83390190565b6000604051905090565b600080fd5b600080fd5b600080fd5b600080fd5b6000601f19601f8301169050919050565b7f4e487b7100000000000000000000000000000000000000000000000000000000600052604160045260246000fd5b61076982610720565b810181811067ffffffffffffffff8211171561078857610787610731565b5b80604052505050565b600061079b610702565b90506107a78282610760565b919050565b600067ffffffffffffffff8211156107c7576107c6610731565b5b6107d082610720565b9050602081019050919050565b82818337600083830152505050565b60006107ff6107fa846107ac565b610791565b90508281526020810184848401111561081b5761081a61071b565b5b6108268482856107dd565b509392505050565b600082601f83011261084357610842610716565b5b81356108538482602086016107ec565b91505092915050565b6000819050919050565b61086f8161085c565b811461087a57600080fd5b50565b60008135905061088c81610866565b92915050565b600080600080608085870312156108ac576108ab61070c565b5b600085013567ffffffffffffffff8111156108ca576108c9610711565b5b6108d68782880161082e565b945050602085013567ffffffffffffffff8111156108f7576108f6610711565b5b6109038782880161082e565b935050604085013567ffffffffffffffff81111561092457610923610711565b5b6109308782880161082e565b92505060606109418782880161087d565b91505092959194509250565b6000602082840312156109635761096261070c565b5b60006109718482850161087d565b91505092915050565b600081519050919050565b600082825260208201905092915050565b60005b838110156109b4578082015181840152602081019050610999565b60008484015250505050565b60006109cb8261097a565b6109d58185610985565b93506109e5818560208601610996565b6109ee81610720565b840191505092915050565b610a028161085c565b82525050565b60006060820190508181036000830152610a2281866109c0565b90508181036020830152610a3681856109c0565b9050610a4560408301846109f9565b949350505050565b6000602082019050610a6260008301846109f9565b92915050565b600073ffffffffffffffffffffffffffffffffffffffff82169050919050565b6000610a9382610a68565b9050919050565b610aa381610a88565b82525050565b6000602082019050610abe6000830184610a9a565b92915050565b6000819050919050565b6000610ae9610ae4610adf84610a68565b610ac4565b610a68565b9050919050565b6000610afb82610ace565b9050919050565b6000610b0d82610af0565b9050919050565b610b1d81610b02565b82525050565b6000602082019050610b386000830184610b14565b92915050565b610b4781610a88565b8114610b5257600080fd5b50565b600081359050610b6481610b3e565b92915050565b600060208284031215610b8057610b7f61070c565b5b6000610b8e84828501610b55565b91505092915050565b600060a082019050610bac6000830188610a9a565b8181036020830152610bbe81876109c0565b9050610bcd60408301866109f9565b8181036060830152610bdf81856109c0565b90508181036080830152610bf381846109c0565b90509695505050505050565b7f4e487b7100000000000000000000000000000000000000000000000000000000600052601160045260246000fd5b6000610c398261085c565b91507fffffffffffffffffffffffffffffffffffffffffffffffffffffffffffffffff8203610c6b57610c6a610bff565b5b600182019050919050565b7f4d6f6e73746572206361726420646f6573206e6f742065786973740000000000600082015250565b6000610cac601b83610985565b9150610cb782610c76565b602082019050919050565b60006020820190508181036000830152610cdb81610c9f565b9050919050565b6000610cf5610cf0846107ac565b610791565b905082815260208101848484011115610d1157610d1061071b565b5b610d1c848285610996565b509392505050565b600082601f830112610d3957610d38610716565b5b8151610d49848260208601610ce2565b91505092915050565b600060208284031215610d6857610d6761070c565b5b600082015167ffffffffffffffff811115610d8657610d85610711565b5b610d9284828501610d24565b91505092915050565b600081519050610daa81610866565b92915050565b600060208284031215610dc657610dc561070c565b5b6000610dd484828501610d9b565b9150509291505056fe60806040526001600f5534801561001557600080fd5b506040516141f63803806141f683398181016040528101906100379190610489565b8484838160009081610049919061076f565b508060019081610059919061076f565b505050600073ffffffffffffffffffffffffffffffffffffffff168173ffffffffffffffffffffffffffffffffffffffff16036100ce5760006040517f1e4fbdf70000000000000000000000000000000000000000000000000000000081526004016100c59190610850565b60405180910390fd5b6100dd816101ba60201b60201c565b506001600c81905550600073ffffffffffffffffffffffffffffffffffffffff168573ffffffffffffffffffffffffffffffffffffffff1603610155576040517f08c379a000000000000000000000000000000000000000000000000000000000815260040161014c906108c8565b60405180910390fd5b6000815111610199576040517f08c379a000000000000000000000000000000000000000000000000000000000815260040161019090610934565b60405180910390fd5b82600d8190555080600e90816101af919061076f565b505050505050610954565b6000600b60009054906101000a900473ffffffffffffffffffffffffffffffffffffffff16905081600b60006101000a81548173ffffffffffffffffffffffffffffffffffffffff021916908373ffffffffffffffffffffffffffffffffffffffff1602179055508173ffffffffffffffffffffffffffffffffffffffff168173ffffffffffffffffffffffffffffffffffffffff167f8be0079c531659141344cd1fd0a4f28419497f9722a3daafe3b4186f6b6457e060405160405180910390a35050565b6000604051905090565b600080fd5b600080fd5b600073ffffffffffffffffffffffffffffffffffffffff82169050919050565b60006102bf82610294565b9050919050565b6102cf816102b4565b81146102da57600080fd5b50565b6000815190506102ec816102c6565b92915050565b600080fd5b600080fd5b6000601f19601f8301169050919050565b7f4e487b7100000000000000000000000000000000000000000000000000000000600052604160045260246000fd5b610345826102fc565b810181811067ffffffffffffffff821117156103645761036361030d565b5b80604052505050565b6000610377610280565b9050610383828261033c565b919050565b600067ffffffffffffffff8211156103a3576103a261030d565b5b6103ac826102fc565b9050602081019050919050565b60005b838110156103d75780820151818401526020810190506103bc565b60008484015250505050565b60006103f66103f184610388565b61036d565b905082815260208101848484011115610412576104116102f7565b5b61041d8482856103b9565b509392505050565b600082601f83011261043a576104396102f2565b5b815161044a8482602086016103e3565b91505092915050565b6000819050919050565b61046681610453565b811461047157600080fd5b50565b6000815190506104838161045d565b92915050565b600080600080600060a086880312156104a5576104a461028a565b5b60006104b3888289016102dd565b955050602086015167ffffffffffffffff8111156104d4576104d361028f565b5b6104e088828901610425565b94505060406104f188828901610474565b935050606086015167ffffffffffffffff8111156105125761051161028f565b5b61051e88828901610425565b925050608086015167ffffffffffffffff81111561053f5761053e61028f565b5b61054b88828901610425565b9150509295509295909350565b600081519050919050565b7f4e487b7100000000000000000000000000000000000000000000000000000000600052602260045260246000fd5b600060028204905060018216806105aa57607f821691505b6020821081036105bd576105bc610563565b5b50919050565b60008190508160005260206000209050919050565b60006020601f8301049050919050565b600082821b905092915050565b6000600883026106257fffffffffffffffffffffffffffffffffffffffffffffffffffffffffffffffff826105e8565b61062f86836105e8565b95508019841693508086168417925050509392505050565b6000819050919050565b600061066c61066761066284610453565b610647565b610453565b9050919050565b6000819050919050565b61068683610651565b61069a61069282610673565b8484546105f5565b825550505050565b600090565b6106af6106a2565b6106ba81848461067d565b505050565b5b818110156106de576106d36000826106a7565b6001810190506106c0565b5050565b601f821115610723576106f4816105c3565b6106fd846105d8565b8101602085101561070c578190505b610720610718856105d8565b8301826106bf565b50505b505050565b600082821c905092915050565b600061074660001984600802610728565b1980831691505092915050565b600061075f8383610735565b9150826002028217905092915050565b61077882610558565b67ffffffffffffffff8111156107915761079061030d565b5b61079b8254610592565b6107a68282856106e2565b600060209050601f8311600181146107d957600084156107c7578287015190505b6107d18582610753565b865550610839565b601f1984166107e7866105c3565b60005b8281101561080f578489015182556001820191506020850194506020810190506107ea565b8683101561082c5784890151610828601f891682610735565b8355505b6001600288020188555050505b505050505050565b61084a816102b4565b82525050565b60006020820190506108656000830184610841565b92915050565b600082825260208201905092915050565b7f496e76616c696420696e697469616c206f776e65722061646472657373000000600082015250565b60006108b2601d8361086b565b91506108bd8261087c565b602082019050919050565b600060208201905081810360008301526108e1816108a5565b9050919050565b7f42617365205552492063616e6e6f7420626520656d7074790000000000000000600082015250565b600061091e60188361086b565b9150610929826108e8565b602082019050919050565b6000602082019050818103600083015261094d81610911565b9050919050565b613893806109636000396000f3fe6080604052600436106101855760003560e01c8063715018a6116100d1578063a22cb4651161008a578063c87b56dd11610064578063c87b56dd14610608578063e985e9c514610645578063f2fde38b14610682578063f82c2ba9146106ab576101da565b8063a22cb465146105ac578063b88d4fde146105d5578063b9c94531146105fe576101da565b8063715018a6146104bf5780637362377b146104d65780638da5cb5b146104ed57806395d89b411461051857806397a993aa14610543578063a035b1fe14610581576101da565b80632509c91c1161013e5780634f6ccce7116101185780634f6ccce7146103dd5780636352211e1461041a5780636c0360eb1461045757806370a0823114610482576101da565b80632509c91c1461034c5780632f745c591461037757806342842e0e146103b4576101da565b806301ffc9a71461022a57806306fdde0314610267578063081812fc14610292578063095ea7b3146102cf57806318160ddd146102f857806323b872dd14610323576101da565b366101da573373ffffffffffffffffffffffffffffffffffffffff167f88a5966d370b9919b20f3e2c13ff65706f196a4e32cc2c12bf57088f88525874346040516101d0919061299a565b60405180910390a2005b3373ffffffffffffffffffffffffffffffffffffffff167f88a5966d370b9919b20f3e2c13ff65706f196a4e32cc2c12bf57088f8852587434604051610220919061299a565b60405180910390a2005b34801561023657600080fd5b50610251600480360381019061024c9190612a21565b6106d4565b60405161025e9190612a69565b60405180910390f35b34801561027357600080fd5b5061027c6106e6565b6040516102899190612b14565b60405180910390f35b34801561029e57600080fd5b506102b960048036038101906102b49190612b62565b610778565b6040516102c69190612bd0565b60405180910390f35b3480156102db57600080fd5b506102f660048036038101906102f19190612c17565b610794565b005b34801561030457600080fd5b5061030d6107aa565b60405161031a919061299a565b60405180910390f35b34801561032f57600080fd5b5061034a60048036038101906103459190612c57565b6107b7565b005b34801561035857600080fd5b506103616108b9565b60405161036e919061299a565b60405180910390f35b34801561038357600080fd5b5061039e60048036038101906103999190612c17565b6108bf565b6040516103ab919061299a565b60405180910390f35b3480156103c057600080fd5b506103db60048036038101906103d69190612c57565b610968565b005b3480156103e957600080fd5b5061040460048036038101906103ff9190612b62565b610988565b604051610411919061299a565b60405180910390f35b34801561042657600080fd5b50610441600480360381019061043c9190612b62565b6109fe565b60405161044e9190612bd0565b60405180910390f35b34801561046357600080fd5b5061046c610a10565b6040516104799190612b14565b60405180910390f35b34801561048e57600080fd5b506104a960048036038101906104a49190612caa565b610a9e565b6040516104b6919061299a565b60405180910390f35b3480156104cb57600080fd5b506104d4610b58565b005b3480156104e257600080fd5b506104eb610b6c565b005b3480156104f957600080fd5b50610502610c83565b60405161050f9190612bd0565b60405180910390f35b34801561052457600080fd5b5061052d610cad565b60405161053a9190612b14565b60405180910390f35b34801561054f57600080fd5b5061056a60048036038101906105659190612caa565b610d3f565b604051610578929190612cd7565b60405180910390f35b34801561058d57600080fd5b50610596610d70565b6040516105a3919061299a565b60405180910390f35b3480156105b857600080fd5b506105d360048036038101906105ce9190612d2c565b610d76565b005b3480156105e157600080fd5b506105fc60048036038101906105f79190612ea1565b610d8c565b005b610606610db1565b005b34801561061457600080fd5b5061062f600480360381019061062a9190612b62565b61104d565b60405161063c9190612b14565b60405180910390f35b34801561065157600080fd5b5061066c60048036038101906106679190612f24565b61105f565b6040516106799190612a69565b60405180910390f35b34801561068e57600080fd5b506106a960048036038101906106a49190612caa565b6110f3565b005b3480156106b757600080fd5b506106d260048036038101906106cd9190612c57565b611179565b005b60006106df82611294565b9050919050565b6060600080546106f590612f93565b80601f016020809104026020016040519081016040528092919081815260200182805461072190612f93565b801561076e5780601f106107435761010080835404028352916020019161076e565b820191906000526020600020905b81548152906001019060200180831161075157829003601f168201915b5050505050905090565b6000610783826112f5565b5061078d8261137d565b9050919050565b6107a682826107a16113ba565b6113c2565b5050565b6000600880549050905090565b600073ffffffffffffffffffffffffffffffffffffffff168273ffffffffffffffffffffffffffffffffffffffff16036108295760006040517f64a0ae920000000000000000000000000000000000000000000000000000000081526004016108209190612bd0565b60405180910390fd5b600061083d83836108386113ba565b6113d4565b90508373ffffffffffffffffffffffffffffffffffffffff168173ffffffffffffffffffffffffffffffffffffffff16146108b3578382826040517f64283d7b0000000000000000000000000000000000000000000000000000000081526004016108aa93929190612fc4565b60405180910390fd5b50505050565b600f5481565b60006108ca83610a9e565b821061090f5782826040517fa57d13dc000000000000000000000000000000000000000000000000000000008152600401610906929190612ffb565b60405180910390fd5b600660008473ffffffffffffffffffffffffffffffffffffffff1673ffffffffffffffffffffffffffffffffffffffff168152602001908152602001600020600083815260200190815260200160002054905092915050565b61098383838360405180602001604052806000815250610d8c565b505050565b60006109926107aa565b82106109d8576000826040517fa57d13dc0000000000000000000000000000000000000000000000000000000081526004016109cf929190612ffb565b60405180910390fd5b600882815481106109ec576109eb613024565b5b90600052602060002001549050919050565b6000610a09826112f5565b9050919050565b600e8054610a1d90612f93565b80601f0160208091040260200160405190810160405280929190818152602001828054610a4990612f93565b8015610a965780601f10610a6b57610100808354040283529160200191610a96565b820191906000526020600020905b815481529060010190602001808311610a7957829003601f168201915b505050505081565b60008073ffffffffffffffffffffffffffffffffffffffff168273ffffffffffffffffffffffffffffffffffffffff1603610b115760006040517f89c62b64000000000000000000000000000000000000000000000000000000008152600401610b089190612bd0565b60405180910390fd5b600360008373ffffffffffffffffffffffffffffffffffffffff1673ffffffffffffffffffffffffffffffffffffffff168152602001908152602001600020549050919050565b610b606113ea565b610b6a6000611471565b565b610b746113ea565b610b7c611537565b600047905060008111610bc4576040517f08c379a0000000000000000000000000000000000000000000000000000000008152600401610bbb906130c5565b60405180910390fd5b6000610bce610c83565b73ffffffffffffffffffffffffffffffffffffffff1682604051610bf190613116565b60006040518083038185875af1925050503d8060008114610c2e576040519150601f19603f3d011682016040523d82523d6000602084013e610c33565b606091505b5050905080610c77576040517f08c379a0000000000000000000000000000000000000000000000000000000008152600401610c6e90613177565b60405180910390fd5b5050610c8161157d565b565b6000600b60009054906101000a900473ffffffffffffffffffffffffffffffffffffffff16905090565b606060018054610cbc90612f93565b80601f0160208091040260200160405190810160405280929190818152602001828054610ce890612f93565b8015610d355780601f10610d0a57610100808354040283529160200191610d35565b820191906000526020600020905b815481529060010190602001808311610d1857829003601f168201915b5050505050905090565b60106020528060005260406000206000915090508060000160009054906101000a900460ff16908060010154905082565b600d5481565b610d88610d816113ba565b8383611587565b5050565b610d978484846107b7565b610dab610da26113ba565b858585856116f6565b50505050565b610db9611537565b610dc1610c83565b73ffffffffffffffffffffffffffffffffffffffff163373ffffffffffffffffffffffffffffffffffffffff1603610e2e576040517f08c379a0000000000000000000000000000000000000000000000000000000008152600401610e25906131e3565b60405180910390fd5b600d54341015610e73576040517f08c379a0000000000000000000000000000000000000000000000000000000008152600401610e6a90613275565b60405180910390fd5b601060003373ffffffffffffffffffffffffffffffffffffffff1673ffffffffffffffffffffffffffffffffffffffff16815260200190815260200160002060000160009054906101000a900460ff1615610f03576040517f08c379a0000000000000000000000000000000000000000000000000000000008152600401610efa906132e1565b60405180910390fd5b610f0f33600f546118a7565b610fa5600f54600e8054610f2290612f93565b80601f0160208091040260200160405190810160405280929190818152602001828054610f4e90612f93565b8015610f9b5780601f10610f7057610100808354040283529160200191610f9b565b820191906000526020600020905b815481529060010190602001808311610f7e57829003601f168201915b50505050506118c5565b6040518060400160405280600115158152602001600f54815250601060003373ffffffffffffffffffffffffffffffffffffffff1673ffffffffffffffffffffffffffffffffffffffff16815260200190815260200160002060008201518160000160006101000a81548160ff02191690831515021790555060208201518160010155905050600f600081548092919061103e90613330565b919050555061104b61157d565b565b606061105882611921565b9050919050565b6000600560008473ffffffffffffffffffffffffffffffffffffffff1673ffffffffffffffffffffffffffffffffffffffff16815260200190815260200160002060008373ffffffffffffffffffffffffffffffffffffffff1673ffffffffffffffffffffffffffffffffffffffff16815260200190815260200160002060009054906101000a900460ff16905092915050565b6110fb6113ea565b600073ffffffffffffffffffffffffffffffffffffffff168173ffffffffffffffffffffffffffffffffffffffff160361116d5760006040517f1e4fbdf70000000000000000000000000000000000000000000000000000000081526004016111649190612bd0565b60405180910390fd5b61117681611471565b50565b611181611537565b8173ffffffffffffffffffffffffffffffffffffffff166111a1826109fe565b73ffffffffffffffffffffffffffffffffffffffff16146111f7576040517f08c379a00000000000000000000000000000000000000000000000000000000081526004016111ee906133ea565b60405180910390fd5b6112028284836107b7565b60405180604001604052806000151581526020016000815250601060008473ffffffffffffffffffffffffffffffffffffffff1673ffffffffffffffffffffffffffffffffffffffff16815260200190815260200160002060008201518160000160006101000a81548160ff0219169083151502179055506020820151816001015590505061128f61157d565b505050565b6000634906490660e01b7bffffffffffffffffffffffffffffffffffffffffffffffffffffffff1916827bffffffffffffffffffffffffffffffffffffffffffffffffffffffff191614806112ee57506112ed82611a34565b5b9050919050565b60008061130183611aae565b9050600073ffffffffffffffffffffffffffffffffffffffff168173ffffffffffffffffffffffffffffffffffffffff160361137457826040517f7e27328900000000000000000000000000000000000000000000000000000000815260040161136b919061299a565b60405180910390fd5b80915050919050565b60006004600083815260200190815260200160002060009054906101000a900473ffffffffffffffffffffffffffffffffffffffff169050919050565b600033905090565b6113cf8383836001611aeb565b505050565b60006113e1848484611cb0565b90509392505050565b6113f26113ba565b73ffffffffffffffffffffffffffffffffffffffff16611410610c83565b73ffffffffffffffffffffffffffffffffffffffff161461146f576114336113ba565b6040517f118cdaa70000000000000000000000000000000000000000000000000000000081526004016114669190612bd0565b60405180910390fd5b565b6000600b60009054906101000a900473ffffffffffffffffffffffffffffffffffffffff16905081600b60006101000a81548173ffffffffffffffffffffffffffffffffffffffff021916908373ffffffffffffffffffffffffffffffffffffffff1602179055508173ffffffffffffffffffffffffffffffffffffffff168173ffffffffffffffffffffffffffffffffffffffff167f8be0079c531659141344cd1fd0a4f28419497f9722a3daafe3b4186f6b6457e060405160405180910390a35050565b6002600c5403611573576040517f3ee5aeb500000000000000000000000000000000000000000000000000000000815260040160405180910390fd5b6002600c81905550565b6001600c81905550565b600073ffffffffffffffffffffffffffffffffffffffff168273ffffffffffffffffffffffffffffffffffffffff16036115f857816040517f5b08ba180000000000000000000000000000000000000000000000000000000081526004016115ef9190612bd0565b60405180910390fd5b80600560008573ffffffffffffffffffffffffffffffffffffffff1673ffffffffffffffffffffffffffffffffffffffff16815260200190815260200160002060008473ffffffffffffffffffffffffffffffffffffffff1673ffffffffffffffffffffffffffffffffffffffff16815260200190815260200160002060006101000a81548160ff0219169083151502179055508173ffffffffffffffffffffffffffffffffffffffff168373ffffffffffffffffffffffffffffffffffffffff167f17307eab39ab6107e8899845ad3d59bd9653f200f220920489ca2b5937696c31836040516116e99190612a69565b60405180910390a3505050565b60008373ffffffffffffffffffffffffffffffffffffffff163b11156118a0578273ffffffffffffffffffffffffffffffffffffffff1663150b7a02868685856040518563ffffffff1660e01b8152600401611755949392919061345f565b6020604051808303816000875af192505050801561179157506040513d601f19601f8201168201806040525081019061178e91906134c0565b60015b611815573d80600081146117c1576040519150601f19603f3d011682016040523d82523d6000602084013e6117c6565b606091505b50600081510361180d57836040517f64a0ae920000000000000000000000000000000000000000000000000000000081526004016118049190612bd0565b60405180910390fd5b805181602001fd5b63150b7a0260e01b7bffffffffffffffffffffffffffffffffffffffffffffffffffffffff1916817bffffffffffffffffffffffffffffffffffffffffffffffffffffffff19161461189e57836040517f64a0ae920000000000000000000000000000000000000000000000000000000081526004016118959190612bd0565b60405180910390fd5b505b5050505050565b6118c1828260405180602001604052806000815250611dcd565b5050565b80600a600084815260200190815260200160002090816118e59190613699565b507ff8e1a15aba9398e019f0b49df1a4fde98ee17ae345cb5f6b5e2c27f5033e8ce782604051611915919061299a565b60405180910390a15050565b606061192c826112f5565b506000600a6000848152602001908152602001600020805461194d90612f93565b80601f016020809104026020016040519081016040528092919081815260200182805461197990612f93565b80156119c65780601f1061199b576101008083540402835291602001916119c6565b820191906000526020600020905b8154815290600101906020018083116119a957829003601f168201915b5050505050905060006119d7611df1565b905060008151036119ec578192505050611a2f565b600082511115611a21578082604051602001611a099291906137a7565b60405160208183030381529060405292505050611a2f565b611a2a84611e83565b925050505b919050565b60007f780e9d63000000000000000000000000000000000000000000000000000000007bffffffffffffffffffffffffffffffffffffffffffffffffffffffff1916827bffffffffffffffffffffffffffffffffffffffffffffffffffffffff19161480611aa75750611aa682611eec565b5b9050919050565b60006002600083815260200190815260200160002060009054906101000a900473ffffffffffffffffffffffffffffffffffffffff169050919050565b8080611b245750600073ffffffffffffffffffffffffffffffffffffffff168273ffffffffffffffffffffffffffffffffffffffff1614155b15611c58576000611b34846112f5565b9050600073ffffffffffffffffffffffffffffffffffffffff168373ffffffffffffffffffffffffffffffffffffffff1614158015611b9f57508273ffffffffffffffffffffffffffffffffffffffff168173ffffffffffffffffffffffffffffffffffffffff1614155b8015611bb25750611bb0818461105f565b155b15611bf457826040517fa9fbf51f000000000000000000000000000000000000000000000000000000008152600401611beb9190612bd0565b60405180910390fd5b8115611c5657838573ffffffffffffffffffffffffffffffffffffffff168273ffffffffffffffffffffffffffffffffffffffff167f8c5be1e5ebec7d5bd14f71427d1e84f3dd0314c0f7b2291e5b200ac8c7c3b92560405160405180910390a45b505b836004600085815260200190815260200160002060006101000a81548173ffffffffffffffffffffffffffffffffffffffff021916908373ffffffffffffffffffffffffffffffffffffffff16021790555050505050565b600080611cbe858585611fce565b9050600073ffffffffffffffffffffffffffffffffffffffff168173ffffffffffffffffffffffffffffffffffffffff1603611d0257611cfd846121e8565b611d41565b8473ffffffffffffffffffffffffffffffffffffffff168173ffffffffffffffffffffffffffffffffffffffff1614611d4057611d3f8185612231565b5b5b600073ffffffffffffffffffffffffffffffffffffffff168573ffffffffffffffffffffffffffffffffffffffff1603611d8357611d7e8461231c565b611dc2565b8473ffffffffffffffffffffffffffffffffffffffff168173ffffffffffffffffffffffffffffffffffffffff1614611dc157611dc085856123ed565b5b5b809150509392505050565b611dd78383612478565b611dec611de26113ba565b60008585856116f6565b505050565b6060600e8054611e0090612f93565b80601f0160208091040260200160405190810160405280929190818152602001828054611e2c90612f93565b8015611e795780601f10611e4e57610100808354040283529160200191611e79565b820191906000526020600020905b815481529060010190602001808311611e5c57829003601f168201915b5050505050905090565b6060611e8e826112f5565b506000611e99611df1565b90506000815111611eb95760405180602001604052806000815250611ee4565b80611ec384612571565b604051602001611ed49291906137a7565b6040516020818303038152906040525b915050919050565b60007f80ac58cd000000000000000000000000000000000000000000000000000000007bffffffffffffffffffffffffffffffffffffffffffffffffffffffff1916827bffffffffffffffffffffffffffffffffffffffffffffffffffffffff19161480611fb757507f5b5e139f000000000000000000000000000000000000000000000000000000007bffffffffffffffffffffffffffffffffffffffffffffffffffffffff1916827bffffffffffffffffffffffffffffffffffffffffffffffffffffffff1916145b80611fc75750611fc68261263f565b5b9050919050565b600080611fda84611aae565b9050600073ffffffffffffffffffffffffffffffffffffffff168373ffffffffffffffffffffffffffffffffffffffff161461201c5761201b8184866126a9565b5b600073ffffffffffffffffffffffffffffffffffffffff168173ffffffffffffffffffffffffffffffffffffffff16146120ad5761205e600085600080611aeb565b6001600360008373ffffffffffffffffffffffffffffffffffffffff1673ffffffffffffffffffffffffffffffffffffffff168152602001908152602001600020600082825403925050819055505b600073ffffffffffffffffffffffffffffffffffffffff168573ffffffffffffffffffffffffffffffffffffffff1614612130576001600360008773ffffffffffffffffffffffffffffffffffffffff1673ffffffffffffffffffffffffffffffffffffffff168152602001908152602001600020600082825401925050819055505b846002600086815260200190815260200160002060006101000a81548173ffffffffffffffffffffffffffffffffffffffff021916908373ffffffffffffffffffffffffffffffffffffffff160217905550838573ffffffffffffffffffffffffffffffffffffffff168273ffffffffffffffffffffffffffffffffffffffff167fddf252ad1be2c89b69c2b068fc378daa952ba7f163c4a11628f55a4df523b3ef60405160405180910390a4809150509392505050565b6008805490506009600083815260200190815260200160002081905550600881908060018154018082558091505060019003906000526020600020016000909190919091505550565b600061223c83610a9e565b90506000600760008481526020019081526020016000205490506000600660008673ffffffffffffffffffffffffffffffffffffffff1673ffffffffffffffffffffffffffffffffffffffff16815260200190815260200160002090508282146122e85760008160008581526020019081526020016000205490508082600085815260200190815260200160002081905550826007600083815260200190815260200160002081905550505b6007600085815260200190815260200160002060009055806000848152602001908152602001600020600090555050505050565b6000600160088054905061233091906137cb565b90506000600960008481526020019081526020016000205490506000600883815481106123605761235f613024565b5b90600052602060002001549050806008838154811061238257612381613024565b5b9060005260206000200181905550816009600083815260200190815260200160002081905550600960008581526020019081526020016000206000905560088054806123d1576123d06137ff565b5b6001900381819060005260206000200160009055905550505050565b600060016123fa84610a9e565b61240491906137cb565b905081600660008573ffffffffffffffffffffffffffffffffffffffff1673ffffffffffffffffffffffffffffffffffffffff168152602001908152602001600020600083815260200190815260200160002081905550806007600084815260200190815260200160002081905550505050565b600073ffffffffffffffffffffffffffffffffffffffff168273ffffffffffffffffffffffffffffffffffffffff16036124ea5760006040517f64a0ae920000000000000000000000000000000000000000000000000000000081526004016124e19190612bd0565b60405180910390fd5b60006124f8838360006113d4565b9050600073ffffffffffffffffffffffffffffffffffffffff168173ffffffffffffffffffffffffffffffffffffffff161461256c5760006040517f73c6ac6e0000000000000000000000000000000000000000000000000000000081526004016125639190612bd0565b60405180910390fd5b505050565b6060600060016125808461276d565b01905060008167ffffffffffffffff81111561259f5761259e612d76565b5b6040519080825280601f01601f1916602001820160405280156125d15781602001600182028036833780820191505090505b509050600082602001820190505b600115612634578080600190039150507f3031323334353637383961626364656600000000000000000000000000000000600a86061a8153600a85816126285761262761382e565b5b049450600085036125df575b819350505050919050565b60007f01ffc9a7000000000000000000000000000000000000000000000000000000007bffffffffffffffffffffffffffffffffffffffffffffffffffffffff1916827bffffffffffffffffffffffffffffffffffffffffffffffffffffffff1916149050919050565b6126b48383836128c0565b61276857600073ffffffffffffffffffffffffffffffffffffffff168373ffffffffffffffffffffffffffffffffffffffff160361272957806040517f7e273289000000000000000000000000000000000000000000000000000000008152600401612720919061299a565b60405180910390fd5b81816040517f177e802f00000000000000000000000000000000000000000000000000000000815260040161275f929190612ffb565b60405180910390fd5b505050565b600080600090507a184f03e93ff9f4daa797ed6e38ed64bf6a1f01000000000000000083106127cb577a184f03e93ff9f4daa797ed6e38ed64bf6a1f01000000000000000083816127c1576127c061382e565b5b0492506040810190505b6d04ee2d6d415b85acef81000000008310612808576d04ee2d6d415b85acef810000000083816127fe576127fd61382e565b5b0492506020810190505b662386f26fc10000831061283757662386f26fc10000838161282d5761282c61382e565b5b0492506010810190505b6305f5e1008310612860576305f5e10083816128565761285561382e565b5b0492506008810190505b612710831061288557612710838161287b5761287a61382e565b5b0492506004810190505b606483106128a8576064838161289e5761289d61382e565b5b0492506002810190505b600a83106128b7576001810190505b80915050919050565b60008073ffffffffffffffffffffffffffffffffffffffff168373ffffffffffffffffffffffffffffffffffffffff161415801561297857508273ffffffffffffffffffffffffffffffffffffffff168473ffffffffffffffffffffffffffffffffffffffff1614806129395750612938848461105f565b5b8061297757508273ffffffffffffffffffffffffffffffffffffffff1661295f8361137d565b73ffffffffffffffffffffffffffffffffffffffff16145b5b90509392505050565b6000819050919050565b61299481612981565b82525050565b60006020820190506129af600083018461298b565b92915050565b6000604051905090565b600080fd5b600080fd5b60007fffffffff0000000000000000000000000000000000000000000000000000000082169050919050565b6129fe816129c9565b8114612a0957600080fd5b50565b600081359050612a1b816129f5565b92915050565b600060208284031215612a3757612a366129bf565b5b6000612a4584828501612a0c565b91505092915050565b60008115159050919050565b612a6381612a4e565b82525050565b6000602082019050612a7e6000830184612a5a565b92915050565b600081519050919050565b600082825260208201905092915050565b60005b83811015612abe578082015181840152602081019050612aa3565b60008484015250505050565b6000601f19601f8301169050919050565b6000612ae682612a84565b612af08185612a8f565b9350612b00818560208601612aa0565b612b0981612aca565b840191505092915050565b60006020820190508181036000830152612b2e8184612adb565b905092915050565b612b3f81612981565b8114612b4a57600080fd5b50565b600081359050612b5c81612b36565b92915050565b600060208284031215612b7857612b776129bf565b5b6000612b8684828501612b4d565b91505092915050565b600073ffffffffffffffffffffffffffffffffffffffff82169050919050565b6000612bba82612b8f565b9050919050565b612bca81612baf565b82525050565b6000602082019050612be56000830184612bc1565b92915050565b612bf481612baf565b8114612bff57600080fd5b50565b600081359050612c1181612beb565b92915050565b60008060408385031215612c2e57612c2d6129bf565b5b6000612c3c85828601612c02565b9250506020612c4d85828601612b4d565b9150509250929050565b600080600060608486031215612c7057612c6f6129bf565b5b6000612c7e86828701612c02565b9350506020612c8f86828701612c02565b9250506040612ca086828701612b4d565b9150509250925092565b600060208284031215612cc057612cbf6129bf565b5b6000612cce84828501612c02565b91505092915050565b6000604082019050612cec6000830185612a5a565b612cf9602083018461298b565b9392505050565b612d0981612a4e565b8114612d1457600080fd5b50565b600081359050612d2681612d00565b92915050565b60008060408385031215612d4357612d426129bf565b5b6000612d5185828601612c02565b9250506020612d6285828601612d17565b9150509250929050565b600080fd5b600080fd5b7f4e487b7100000000000000000000000000000000000000000000000000000000600052604160045260246000fd5b612dae82612aca565b810181811067ffffffffffffffff82111715612dcd57612dcc612d76565b5b80604052505050565b6000612de06129b5565b9050612dec8282612da5565b919050565b600067ffffffffffffffff821115612e0c57612e0b612d76565b5b612e1582612aca565b9050602081019050919050565b82818337600083830152505050565b6000612e44612e3f84612df1565b612dd6565b905082815260208101848484011115612e6057612e5f612d71565b5b612e6b848285612e22565b509392505050565b600082601f830112612e8857612e87612d6c565b5b8135612e98848260208601612e31565b91505092915050565b60008060008060808587031215612ebb57612eba6129bf565b5b6000612ec987828801612c02565b9450506020612eda87828801612c02565b9350506040612eeb87828801612b4d565b925050606085013567ffffffffffffffff811115612f0c57612f0b6129c4565b5b612f1887828801612e73565b91505092959194509250565b60008060408385031215612f3b57612f3a6129bf565b5b6000612f4985828601612c02565b9250506020612f5a85828601612c02565b9150509250929050565b7f4e487b7100000000000000000000000000000000000000000000000000000000600052602260045260246000fd5b60006002820490506001821680612fab57607f821691505b602082108103612fbe57612fbd612f64565b5b50919050565b6000606082019050612fd96000830186612bc1565b612fe6602083018561298b565b612ff36040830184612bc1565b949350505050565b60006040820190506130106000830185612bc1565b61301d602083018461298b565b9392505050565b7f4e487b7100000000000000000000000000000000000000000000000000000000600052603260045260246000fd5b7f4e6f20457468657220617661696c61626c6520666f722077697468647261776160008201527f6c00000000000000000000000000000000000000000000000000000000000000602082015250565b60006130af602183612a8f565b91506130ba82613053565b604082019050919050565b600060208201905081810360008301526130de816130a2565b9050919050565b600081905092915050565b50565b60006131006000836130e5565b915061310b826130f0565b600082019050919050565b6000613121826130f3565b9150819050919050565b7f4661696c656420746f2077697468647261772045746865720000000000000000600082015250565b6000613161601883612a8f565b915061316c8261312b565b602082019050919050565b6000602082019050818103600083015261319081613154565b9050919050565b7f4f776e65722063616e6e6f742062757920746869732063617264000000000000600082015250565b60006131cd601a83612a8f565b91506131d882613197565b602082019050919050565b600060208201905081810360008301526131fc816131c0565b9050919050565b7f496e73756666696369656e742066756e647320746f207075726368617365206360008201527f6172640000000000000000000000000000000000000000000000000000000000602082015250565b600061325f602383612a8f565b915061326a82613203565b604082019050919050565b6000602082019050818103600083015261328e81613252565b9050919050565b7f416c726561647920626f75676874207468697320746f6b656e00000000000000600082015250565b60006132cb601983612a8f565b91506132d682613295565b602082019050919050565b600060208201905081810360008301526132fa816132be565b9050919050565b7f4e487b7100000000000000000000000000000000000000000000000000000000600052601160045260246000fd5b600061333b82612981565b91507fffffffffffffffffffffffffffffffffffffffffffffffffffffffffffffffff820361336d5761336c613301565b5b600182019050919050565b7f4c6f73657220646f6573206e6f74206f776e2074686973206d6f6e737465722060008201527f6361726400000000000000000000000000000000000000000000000000000000602082015250565b60006133d4602483612a8f565b91506133df82613378565b604082019050919050565b60006020820190508181036000830152613403816133c7565b9050919050565b600081519050919050565b600082825260208201905092915050565b60006134318261340a565b61343b8185613415565b935061344b818560208601612aa0565b61345481612aca565b840191505092915050565b60006080820190506134746000830187612bc1565b6134816020830186612bc1565b61348e604083018561298b565b81810360608301526134a08184613426565b905095945050505050565b6000815190506134ba816129f5565b92915050565b6000602082840312156134d6576134d56129bf565b5b60006134e4848285016134ab565b91505092915050565b60008190508160005260206000209050919050565b60006020601f8301049050919050565b600082821b905092915050565b60006008830261354f7fffffffffffffffffffffffffffffffffffffffffffffffffffffffffffffffff82613512565b6135598683613512565b95508019841693508086168417925050509392505050565b6000819050919050565b600061359661359161358c84612981565b613571565b612981565b9050919050565b6000819050919050565b6135b08361357b565b6135c46135bc8261359d565b84845461351f565b825550505050565b600090565b6135d96135cc565b6135e48184846135a7565b505050565b5b81811015613608576135fd6000826135d1565b6001810190506135ea565b5050565b601f82111561364d5761361e816134ed565b61362784613502565b81016020851015613636578190505b61364a61364285613502565b8301826135e9565b50505b505050565b600082821c905092915050565b600061367060001984600802613652565b1980831691505092915050565b6000613689838361365f565b9150826002028217905092915050565b6136a282612a84565b67ffffffffffffffff8111156136bb576136ba612d76565b5b6136c58254612f93565b6136d082828561360c565b600060209050601f83116001811461370357600084156136f1578287015190505b6136fb858261367d565b865550613763565b601f198416613711866134ed565b60005b8281101561373957848901518255600182019150602085019450602081019050613714565b868310156137565784890151613752601f89168261365f565b8355505b6001600288020188555050505b505050505050565b600081905092915050565b600061378182612a84565b61378b818561376b565b935061379b818560208601612aa0565b80840191505092915050565b60006137b38285613776565b91506137bf8284613776565b91508190509392505050565b60006137d682612981565b91506137e183612981565b92508282039050818111156137f9576137f8613301565b5b92915050565b7f4e487b7100000000000000000000000000000000000000000000000000000000600052603160045260246000fd5b7f4e487b7100000000000000000000000000000000000000000000000000000000600052601260045260246000fdfea264697066735822122034a2f39707a3c1917de5a0a310927c88fe9219fc9087c79b1a431d04f39bc3e964736f6c634300081b0033a2646970667358221220c5f351ebddfd8e7dfa40022e8c9659d201b1a27840a5739a9c1b2dbe5a0c39b564736f6c634300081b0033",
  "linkReferences": {},
  "deployedLinkReferences": {}
}